{
  "transactions": [
    {
      "hash": "0x70e29f85051d2bb01b5bd3d4db5ec0be94b40cfb638e01c305373d0b17dd83d5",
      "transactionType": "CALL",
      "contractName": null,
      "contractAddress": "0xe5e357823a1d5cd2106eb2ccc3e86e6cefdcc963",
      "function": "scheduleContest((string,string,uint8,uint256,uint256,uint256,uint256,uint8,uint256,uint256,address))",
      "arguments": [
        "(QmTest123, 1.0.0, 6, 813151, 100, 5, 200, 3, 0, 1000000000000000000, 0x0000000000000000000000000000000000000000)"
      ],
      "transaction": {
        "from": "0x0affc238a07e3e23c650e110235645dfdd6ec94f",
        "to": "0xe5e357823a1d5cd2106eb2ccc3e86e6cefdcc963",
        "value": "0xde0b6b3a7640000",
        "input": "0xee4efa100000000000000000000000000000000000000000000000000000000000000020000000000000000000000000000000000000000000000000000000000000016000000000000000000000000000000000000000000000000000000000000001a0000000000000000000000000000000000000000000000000000000000000000600000000000000000000000000000000000000000000000000000000000c685f0000000000000000000000000000000000000000000000000000000000000064000000000000000000000000000000000000000000000000000000000000000500000000000000000000000000000000000000000000000000000000000000c8000000000000000000000000000000000000000000000000000000000000000300000000000000000000000000000000000000000000000000000000000000000000000000000000000000000000000000000000000000000de0b6b3a764000000000000000000000000000000000000000000000000000000000000000000000000000000000000000000000000000000000000000000000000000000000009516d5465737431323300000000000000000000000000000000000000000000000000000000000000000000000000000000000000000000000000000000000005312e302e30000000000000000000000000000000000000000000000000000000",
        "nonce": "0x1",
        "chainId": "0x21fc"
      },
      "additionalContracts": [],
      "isFixedGasLimit": false
    }
  ],
  "receipts": [
    {
      "status": "0x1",
      "cumulativeGasUsed": "0x4e4ed",
      "logs": [
        {
          "address": "0xe5e357823a1d5cd2106eb2ccc3e86e6cefdcc963",
          "topics": [
            "0xd52f034664ee4bb653efee0f6fb9992148f2ea738223f44f652c574d7c9d4a91",
            "0x0000000000000000000000000000000000000000000000000000000000000000"
          ],
          "data": "0x00000000000000000000000000000000000000000000000000000000000000e0000000000000000000000000000000000000000000000000000000000000012000000000000000000000000000000000000000000000000000000000000c685f000000000000000000000000000000000000000000000000000000000000006400000000000000000000000000000000000000000000000000000000000000c8000000000000000000000000000000000000000000000000000000000000000300000000000000000000000000000000000000000000000000000000000000000000000000000000000000000000000000000000000000000000000000000009516d5465737431323300000000000000000000000000000000000000000000000000000000000000000000000000000000000000000000000000000000000005312e302e30000000000000000000000000000000000000000000000000000000",
          "blockHash": "0x48dd93da0ac8a6deadd23e134c00fa178172f124d1afbd13c9e41e72a6eacdfb",
          "blockNumber": "0xc6857",
          "transactionHash": "0x70e29f85051d2bb01b5bd3d4db5ec0be94b40cfb638e01c305373d0b17dd83d5",
          "transactionIndex": "0x0",
          "logIndex": "0x0",
          "removed": false
        }
      ],
      "logsBloom": "0x00000000000000000000000000000000000000000000000000000000000000000001000000000000000000000000000000000000000000000400000000000000000000000000000000000000000000000000000000000000000000000000000000000000020000000000000000000800000000000000000000000000000000000000000000000000000000000000000000000000000000008000000000000000000000000000000000000000000000000000000080008000000000000000000000000000000000000000000000000000000000000000000000020000000020000000000000000000000000000000000000000000000000000000000000000000",
      "type": "0x2",
      "transactionHash": "0x70e29f85051d2bb01b5bd3d4db5ec0be94b40cfb638e01c305373d0b17dd83d5",
      "transactionIndex": "0x0",
      "blockHash": "0x48dd93da0ac8a6deadd23e134c00fa178172f124d1afbd13c9e41e72a6eacdfb",
      "blockNumber": "0xc6857",
      "gasUsed": "0x4e4ed",
      "effectiveGasPrice": "0x257c1609",
      "from": "0x0affc238a07e3e23c650e110235645dfdd6ec94f",
      "to": "0xe5e357823a1d5cd2106eb2ccc3e86e6cefdcc963",
      "contractAddress": null
    }
  ],
  "libraries": [],
  "pending": [],
  "returns": {},
  "timestamp": 1764808017393,
  "chain": 8700,
  "commit": "16ef352"
}